:03000000020AE50C
:0C0AE500787FE4F6D8FD75817C020B2CB4
:1009B300023D000002080000020A0000020C0000D1
:1009C300020E0000027A00000278000002320001E9
:1009D300023400000230000002760000073648654A
:1009E3006C6C6F2100113F4E6F2E303020636F6DA2
:1009F3006520746F204E6F001150302E77696E643E
:100A03006F772C506C6561736521000B613030206A
:100A13006973206C656674000A6C416C6C206973A1
:100A23002030300008105731202D203030000818B6
:100A33005732202D2030300008205733202D20300E
:0C0A4300300008285734202D20303000EF
:100D6C00C2AF759850E4F587758920758DFD758B2C
:040D7C00FDD28E22F4
:100CDE00E4FDFCD3ED9FEE6480F8EC648098501533
:100CEE00E4FBFA0BBB00010AEB640B4A70F50DBD79
:050CFE0000010C80DE86
:010D030022CD
:100D0400E4FDFCD3ED9FEE6480F8EC64809850150C
:100D1400E4FBFA0BBB00010AEB64794A70F50DBDE4
:050D240000010C80DE5F
:010D290022A7
:100D2A008F828E83E4F578F579AF82AE83120CDE7A
:100D3A00B2A60579E57970020578D394C8E5789466
:060D4A000040E6D2A622E3
:080C8F00D2A28F807F287E00B5
:100C9700E4FDFCC3ED9FEC9E5015E4FBFA0BBB0093
:0F0CA700010AEB64644A70F50DBD00010C80E496
:010CB600221B
:0C0D9F00C2A1C2A0120C8FC2A2D2A122DD
:050D8000257BF8E6FFF1
:0C0D8500C2A1D2A0120C8FC2A2D2A122E7
:060D50007F01E4FDFCFE42
:100D5600EF64014E7005ED24808003ED24C0FFE4AE
:060D66003CFE120D9F226D
:0E0D91007F017E00120D9F7F027E00020D9FEB
:100C56007F387E00120D9F7F0C7E00120D9F7F064F
:100C66007E00120D9F120D50E4F578F57974362545
:100C760079F8E6FF120D850579E57970020578D3D6
:090C86009405E578940040E52294
:10091200D3E5359533E534953250030209B27F0BA6
:100922007E00120D2A7FC87E00120CDE7F0F120D90
:100932002A120D91053EE53E7002053DE533240184
:10094200FBE43532FA7C007D0AAF03FE120B71EF35
:100952002430F5427C007D0AAF03AE02120B71ED2A
:100962002430F543E5772430F550120D50E4F57A42
:10097200F57B743F120D80057BE57B7002057AD30F
:10098200940FE57A940040EA7F02120D52E4F57A60
:10099200F57B7450120D80057BE57B7002057AD3DE
:1009A200940FE57A940040EA0533E533700205328C
:0109B2002222
:100BC600120D91C3E5359533F531E5349532F5309F
:100BD600FEAF317C007D0A120B71EF2430F561AE59
:100BE60030AF317C007D0A120B71ED2430F56212B4
:100BF6000D50E4F57AF57B7461120D80057BE57B7B
:0E0C06007002057AD39409E57A940040EA2240
:100C1400120D91AE3DAF3E7C007D0A120B71EF24A4
:100C240030F573AE3DAF3E7C007D0A120B71ED24AE
:100C340030F574120D50E4F57AF57B746C120D8066
:100C4400057BE57B7002057AD39408E57A9400402D
:020C5400EA2292
:10080000120D91AE08AF097C007D0A120B71EF2426
:1008100030F515AE08AF097C007D0A120B71ED248E
:1008200030F516AE0AAF0B7C007D0A120B71EF2477
:1008300030F51DAE0AAF0B7C007D0A120B71ED2462
:1008400030F51EAE0CAF0D7C007D0A120B71EF244B
:1008500030F525AE0CAF0D7C007D0A120B71ED2436
:1008600030F526AE0EAF0F7C007D0A120B71EF241F
:1008700030F52DAE0EAF0F7C007D0A120B71ED240A
:1008800030F52E120D50E4F57AF57B7410120D80C0
:10089000057BE57B7002057AD39406E57A940040E7
:1008A000EA7D087C007F017E00120D56E4F57AF5A2
:1008B0007B7418120D80057BE57B7002057AD3945A
:1008C00006E57A940040EAE4FDFC7F02FE120D5634
:1008D000E4F57AF57B7420120D80057BE57B7002D0
:1008E000057AD39406E57A940040EA7D087C007F7F
:1008F000027E00120D56E4F57AF57B7428120D8005
:10090000057BE57B7002057AD39406E57A94004076
:02091000EA22D9
:100A50007590FF7590F085907CE57C64F0700302E2
:100A60000AE47F0A7E00120CDEE57C64F060757596
:100A700090EF85907CE57C2415601B24FE60271494
:100A80006034240770417576007577010509E50922
:100A900070320508802E757600757702050BE50B20
:100AA0007002050A801E757600757703050DE50D49
:100AB0007002050C800E757600757704050FE50F42
:100AC0007002050E1209127590DF85907CE57C247A
:100AD00025600B24FE600A24067009020BC6020C76
:040AE00014120800E4
:010AE40022EF
:100CB700120D6C120D91120C56E4F532F533120A2F
:100CC700508533993099FDC2993098F2C298AF99FF
:070CD7007534008F3580E742
:100AF100020CB7E493A3F8E493A34003F68001F258
:100B010008DFF48029E493A3F85407240CC8C33305
:100B1100C4540F4420C8834004F456800146F6DFD4
:100B2100E4800B01020408102040809009B3E47EA8
:100B3100019360BCA3FF543F30E509541FFEE493C9
:100B4100A360010ECF54C025E060A840B8E493A390
:100B5100FAE493A3F8E493A3C8C582C8CAC583CABB
:100B6100F0A3C8C582C8CAC583CADFE9DEE780BE73
:010A4F0000A6
:100B7100BC000BBE0029EF8DF084FFADF022E4CC68
:100B8100F875F008EF2FFFEE33FEEC33FCEE9DEC31
:100B9100984005FCEE9DFE0FD5F0E9E4CEFD22ED77
:100BA100F8F5F0EE8420D21CFEADF075F008EF2FC1
:100BB100FFED33FD4007985006D5F0F222C398FDB2
:050BC1000FD5F0EA224F
:00000001FF
