:030000000202E811
:0C02E800787FE4F6D8FD75817C02032FBE
:1001B600023D000002080000020A0000020C0000D6
:1001C600020E0000027A00000278000002320001EE
:1001D600023400000230000002760000073648654F
:1001E6006C6C6F2100113F4E6F2E303020636F6DA7
:1001F6006520746F204E6F001150302E77696E6443
:100206006F772C506C6561736521000B613030206F
:100216006973206C656674000A6C416C6C206973A6
:100226002030300008105731202D203030000818BB
:100236005732202D2030300008205733202D203013
:0C024600300008285734202D20303000F4
:10056F00C2AF759850E4F587758920758DFD758B31
:04057F00FDD28E22F9
:1004E100E4FDFCD3ED9FEE6480F8EC648098501538
:1004F100E4FBFA0BBB00010AEB640B4A70F50DBD7E
:0505010000010C80DE8A
:0105060022D2
:10050700E4FDFCD3ED9FEE6480F8EC648098501511
:10051700E4FBFA0BBB00010AEB64794A70F50DBDE9
:0505270000010C80DE64
:01052C0022AC
:10052D008F828E83E4F578F579AF82AE831204E184
:10053D00B2A60579E57970020578D394C8E578946B
:06054D000040E6D2A622E8
:08049200D2A28F807F287E00BA
:10049A00E4FDFCC3ED9FEC9E5015E4FBFA0BBB0098
:0F04AA00010AEB64644A70F50DBD00010C80E49B
:0104B9002220
:0C05A200C2A1C2A0120492C2A2D2A122E7
:05058300257BF8E6FFF6
:0C058800C2A1D2A0120492C2A2D2A122F1
:060553007F01E4FDFCFE47
:10055900EF64014E7005ED24808003ED24C0FFE4B3
:060569003CFE1205A22277
:0E0594007F017E001205A27F027E000205A2FA
:100459007F387E001205A27F0C7E001205A27F065E
:100469007E001205A2120553E4F578F57974362554
:1004790079F8E6FF1205880579E57970020578D3E0
:090489009405E578940040E52299
:10011500D3E5359533E534953250030201B57F0BB0
:100125007E0012052D7FC87E001204E17F0F1205A7
:100135002D120594053EE53E7002053DE53324018B
:10014500FBE43532FA7C007D0AAF03FE120374EF3F
:100155002430F5427C007D0AAF03AE02120374ED34
:100165002430F543E5772430F550120553E4F57A4C
:10017500F57B743F120583057BE57B7002057AD319
:10018500940FE57A940040EA7F02120555E4F57A6A
:10019500F57B7450120583057BE57B7002057AD3E8
:1001A500940FE57A940040EA0533E5337002053291
:0101B5002227
:1003C900120594C3E5359533F531E5349532F530A9
:1003D900FEAF317C007D0A120374EF2430F561AE63
:1003E90030AF317C007D0A120374ED2430F56212BE
:1003F9000553E4F57AF57B7461120583057BE57B8A
:0E0409007002057AD39409E57A940040EA2245
:10041700120594AE3DAF3E7C007D0A120374EF24B3
:1004270030F573AE3DAF3E7C007D0A120374ED24B8
:1004370030F574120553E4F57AF57B746C12058375
:10044700057BE57B7002057AD39408E57A94004032
:02045700EA2297
:10000300120594AE08AF097C007D0A120374EF2435
:1000130030F515AE08AF097C007D0A120374ED2498
:1000230030F516AE0AAF0B7C007D0A120374EF2481
:1000330030F51DAE0AAF0B7C007D0A120374ED246C
:1000430030F51EAE0CAF0D7C007D0A120374EF2455
:1000530030F525AE0CAF0D7C007D0A120374ED2440
:1000630030F526AE0EAF0F7C007D0A120374EF2429
:1000730030F52DAE0EAF0F7C007D0A120374ED2414
:1000830030F52E120553E4F57AF57B7410120583CF
:10009300057BE57B7002057AD39406E57A940040EC
:1000A300EA7D087C007F017E00120559E4F57AF5AC
:1000B3007B7418120583057BE57B7002057AD39464
:1000C30006E57A940040EAE4FDFC7F02FE1205593E
:1000D300E4F57AF57B7420120583057BE57B7002DA
:1000E300057AD39406E57A940040EA7D087C007F84
:1000F300027E00120559E4F57AF57B742812058314
:10010300057BE57B7002057AD39406E57A9400407B
:02011300EA22DE
:100253007590FF7590F085907CE57C64F0700302E7
:1002630002E77F0A7E001204E1E57C64F0607575A5
:1002730090EF85907CE57C2415601B24FE60271499
:100283006034240770417576007577010509E50927
:1002930070320508802E757600757702050BE50B25
:1002A3007002050A801E757600757703050DE50D4E
:1002B3007002050C800E757600757704050FE50F47
:1002C3007002050E1201157590DF85907CE57C2484
:1002D30025600B24FE600A240670090203C9020488
:0402E30017120003EB
:0102E70022F4
:1004BA0012056F120594120459E4F532F53312024B
:1004CA00538533993099FDC2993098F2C298AF9901
:0704DA007534008F3580E747
:1002F4000204BAE493A3F8E493A34003F68001F262
:1003040008DFF48029E493A3F85407240CC8C3330A
:10031400C4540F4420C8834004F456800146F6DFD9
:10032400E4800B01020408102040809001B6E47EB2
:10033400019360BCA3FF543F30E509541FFEE493CE
:10034400A360010ECF54C025E060A840B8E493A395
:10035400FAE493A3F8E493A3C8C582C8CAC583CAC0
:10036400F0A3C8C582C8CAC583CADFE9DEE780BE78
:0102520000AB
:10037400BC000BBE0029EF8DF084FFADF022E4CC6D
:10038400F875F008EF2FFFEE33FEEC33FCEE9DEC36
:10039400984005FCEE9DFE0FD5F0E9E4CEFD22ED7C
:1003A400F8F5F0EE8420D21CFEADF075F008EF2FC6
:1003B400FFED33FD4007985006D5F0F222C398FDB7
:0503C4000FD5F0EA2254
:00000001FF
