:1002E8003F065B4F666D7D077F6F37387679FCFC7C
:1002F800FDFDFDFDFEF9F9FAFAFBFBFCFEFEFEFE34
:10030800FEFEFF8EED446BB4F42D21DB87D768E841
:100318005B4777A2B6DAFA1601020301010203016C
:100328000304050304050506050403010506050481
:100338000301010C01010C01040404040404040475
:100348000404080404080201020104040201020171
:08035800040404040604040679
:05051900010800C10013
:10046900E5089002E893FF1204F612000EC2837F9A
:03047900017E0001
:10047C00D3EF9400EE940040147D547C01ED1D707C
:0D048C00011CED4C70F7EF1F70E61E80E3C1
:010499002240
:1004F600E4FEEF25E0FF9281D2820000C2820EBEAA
:0205060008F0FB
:0105080022D0
:09000E00C28000D28000C28022F1
:1004E100C2A2D2A6C2A7D2AF758801D2A8D2A9D280
:0504F100AB758911222A
:1004C900120469D283E50AA393FF1204F612000EFF
:0804D900C284120478D28422CF
:1003B90020B4107F057E0012047C20B40675080A5B
:1003C900E4F50920B3107F057E0012047C20B306F2
:1003D90075080B75090120B5107F057E0012047C94
:1003E90020B50675080C750902E508700375080D36
:0103F90022E1
:1003FA00E50C90032093FF9002F593F58CEF9003A0
:10040A000A93F58A200025E50CC394205014D28C57
:10041A00E50C9003409375F039A4FFAEF012047C0A
:0D042A00050CE50CB420DDE4F50C80D822B3
:10001E00C28CC28E1203B9120469D283E508640D34
:10002E00700302025B20000302025B20904B75F00E
:10003E0007E509A4250AF582E435F0F583E5822467
:10004E00F6F582E5833402F583E493F58D75F007BA
:10005E00E509A4250AF582E435F0F583E582240B43
:10006E00F582E5833403F583E493F58BD28E2090ED
:10007E0008E4F50A1204C980F520914B75F007E5E6
:10008E0009A4250AF582E435F0F583E58224F6F518
:10009E0082E5833402F583E493F58D75F007E50967
:1000AE00A4250AF582E435F0F583E582240BF5826A
:1000BE00E5833403F583E493F58BD28E2091087596
:1000CE000A011204C980F520924B75F007E509A4C8
:1000DE00250AF582E435F0F583E58224F6F582E50E
:1000EE00833402F583E493F58D75F007E509A425B5
:1000FE000AF582E435F0F583E582240BF582E5837B
:10010E003403F583E493F58BD28E209208750A02A0
:10011E001204C980F520934B75F007E509A4250A52
:10012E00F582E435F0F583E58224F6F582E5833435
:10013E0002F583E493F58D75F007E509A4250AF51C
:10014E0082E435F0F583E582240BF582E5833403F2
:10015E00F583E493F58BD28E209308750A0312046F
:10016E00C980F520944B75F007E509A4250AF582A0
:10017E00E435F0F583E58224F6F582E5833402F565
:10018E0083E493F58D75F007E509A4250AF582E45D
:10019E0035F0F583E582240BF582E5833403F58390
:1001AE00E493F58BD28E209408750A041204C9804C
:1001BE00F520954B75F007E509A4250AF582E4357F
:1001CE00F0F583E58224F6F582E5833402F583E4C7
:1001DE0093F58D75F007E509A4250AF582E435F04F
:1001EE00F583E582240BF582E5833403F583E493EE
:1001FE00F58BD28E209508750A051204C980F5205C
:10020E00964B75F007E509A4250AF582E435F0F55D
:10021E0083E58224F6F582E5833402F583E493F5D3
:10022E008D75F007E509A4250AF582E435F0F5830E
:10023E00E582240BF582E5833403F583E493F58B95
:0E024E00D28E209608750A061204C980F52289
:100509001204E12000051203FA80F812001E80F39C
:0300030002049A5A
:10049A00C0E0C0D075D000C004C005C006C00720A7
:1004AA00B2107F057E0012047C30B2FDB200B2A603
:0F04BA00B2A7D007D006D005D004D0D0D0E03202
:03000B00020437B5
:10043700C0E0C083C082C0D075D000C007C28CE5C1
:100447000C90032093FF9002F593F58CEF90030A2D
:1004570093F58AB2A2D28CD007D0D0D082D083D0E5
:02046700E03281
:03001B000203607D
:10036000C0E0C0F0C083C082C0D0C28E75F007E587
:1003700009A4250AF582E435F0F583E58224F6F533
:1003800082E5833402F583E493F58D75F007E50982
:10039000A4250AF582E435F0F583E582240BF58285
:1003A000E5833403F583E493F58BB2A2D28ED0D0EB
:0903B000D082D083D0F0D0E032FD
:0300000002025C9D
:0C025C00787FE4F6D8FD7581200202A333
:10026800020509E493A3F8E493A34003F68001F29E
:1002780008DFF48029E493A3F85407240CC8C33397
:10028800C4540F4420C8834004F456800146F6DF66
:10029800E4800B0102040810204080900519E47ED8
:1002A800019360BCA3FF543F30E509541FFEE4935B
:1002B800A360010ECF54C025E060A840B8E493A322
:1002C800FAE493A3F8E493A3C8C582C8CAC583CA4D
:1002D800F0A3C8C582C8CAC583CADFE9DEE780BE05
:01051E0000DC
:00000001FF
