:0902B600010901010A000108011F
:10026900D3EF9400EE940040147D727C00ED1D7074
:0D027900011CED4C70F7EF1F70E61E80E3D6
:010286002255
:1001F400E508602030A40320A51AE4F50820A40330
:1002040075120520A503751204E5122430FF1200AF
:0D02140003AF122230A40630A503750801C7
:0102210022BA
:10015F00E4FF1201F4EF603EFD7C006404700205C1
:10016F000DED64054C7002150DAF0DEF3395E0FEEC
:10017F00D3EF940AEE648094804005750D0A800ECB
:10018F00C3EF9401EE648094805003750D01E50D6B
:10019F002430FF120003E50A600930A7030202CEE4
:0301AF001202C772
:0101B200222A
:10024A00E4F5111202A07F327E0012026912000E3A
:0F025A001202CE12015F7F327E0012026980F421
:0702BF00010D01020B00001C
:10000E00438902758CC8E4F58AD2AFD2A9D28CC2CC
:02001E0090222E
:0702C700C28CC2A9C2912202
:0502CE00D28CD2A92230
:03000B000201B33C
:0B01B300C0E0C0D075D000C006C0073F
:1001BE00050CE50C7002050BD39409E50B94004079
:1001CE0006750B00750C00AF0DEF3395E0FEC3E521
:0D01DE000C9FE50B9E5004D2918002C2914F
:0901EB00D007D006D0D0D0E032DC
:1002A000438920758DFD758BFDD28EC29FD29ED263
:0602B0009CD2AFD2AC228B
:03002300020026B2
:10002600C0E0C0F0C083C082C0D075D000C000C0A0
:1000360001C002C003C004C005C006C007C28CC20E
:10004600A9309866859913C298E51324BA602024CE
:10005600F9602424FE601024FC60082412701B053D
:100066000D8017150D80131202CE750901800B1233
:1000760002C77509008003630AFFAF0DEF3395E0F1
:10008600FED3EF940AEE648094804005750D0A80D5
:100096000EC3EF9401EE648094805003750D01E564
:1000A6000D2430F5993099FDC299E5096004D28C8A
:1000B600D2A9D007D006D005D004D003D002D001F3
:0D00C600D000D0D0D082D083D0F0D0E03276
:100222008B0E8A0F8910AB0EAA0FA91012028760DB
:10023200160510E5107002050F14F9120287F599E0
:080242003099FDC29980DF2212
:080003008F993099FDC299228A
:030000000200D328
:0C00D300787FE4F6D8FD75811302011A55
:10028700BB010689828A83E0225002E722BBFE0275
:09029700E32289828A83E49322A8
:1000DF0002024AE493A3F8E493A34003F68001F2EB
:1000EF0008DFF48029E493A3F85407240CC8C33322
:1000FF00C4540F4420C8834004F456800146F6DFF1
:10010F00E4800B01020408102040809002B6E47EC8
:10011F00019360BCA3FF543F30E509541FFEE493E5
:10012F00A360010ECF54C025E060A840B8E493A3AC
:10013F00FAE493A3F8E493A3C8C582C8CAC583CAD7
:10014F00F0A3C8C582C8CAC583CADFE9DEE780BE8F
:0102C6000037
:00000001FF
