:1002E8003F065B4F666D7D077F6F37387679FCFC7C
:1002F800FDFDFDFDFEF9F9FAFAFBFBFCFEFEFEFE34
:10030800FEFEFF8EED446BB4F42D21DB87D768E841
:100318005B4777A2B6DAFA160D010203050301025C
:100328000D010203050506020303050605060F076E
:100338000605060301020305010D01020306050176
:100348000101040101040401010104020203050280
:100358000203030202010102020301010301020276
:05036800010101010389
:05053300010800C100F9
:10047A00E5089002E893FF1204DA12000EC2837FA5
:03048A00017E00F0
:10048D00D3EF9400EE940040147D547C01ED1D706B
:0D049D00011CED4C70F7EF1F70E61E80E3B0
:0104AA00222F
:1004DA00E4FEEEC3940874809480500FEF25E0FF89
:0B04EA009281D2820000C2820E80E7E7
:0104F50022E4
:09000E00C28000D28000C28022F1
:10050E00C2A2D2A6C2A7D2AF758801D2A8D2A9D252
:05051E00AB75891122FC
:1004F60012047AD283E50AA393FF1204DA12000EDD
:08050600C284120489D2842290
:1003C60020B4107F057E0012048D20B40675080A3D
:1003D600E4F50920B3107F057E0012048D20B306D4
:1003E60075080B75090120B5107F057E0012048D76
:1003F60020B50675080C750902E508700375080D29
:0104060022D3
:10040700E50C90032093FF9002F593F58CEF900392
:100417000A93F58A200029C3E50C942674809480FA
:100427005014D28CE50C9003479375F064A4FFAE8B
:10043700F012048D050CE50C642670D8F50C80D4F9
:010447002292
:10001E00C28CC28E1203C612047AD283E508640D16
:10002E00700302025B20000302025B20904B75F00E
:10003E0007E509A4250AF582E435F0F583E5822467
:10004E00F6F582E5833402F583E493F58D75F007BA
:10005E00E509A4250AF582E435F0F583E582240B43
:10006E00F582E5833403F583E493F58BD28E2090ED
:10007E0008E4F50A1204F680F520914B75F007E5B9
:10008E0009A4250AF582E435F0F583E58224F6F518
:10009E0082E5833402F583E493F58D75F007E50967
:1000AE00A4250AF582E435F0F583E582240BF5826A
:1000BE00E5833403F583E493F58BD28E2091087596
:1000CE000A011204F680F520924B75F007E509A49B
:1000DE00250AF582E435F0F583E58224F6F582E50E
:1000EE00833402F583E493F58D75F007E509A425B5
:1000FE000AF582E435F0F583E582240BF582E5837B
:10010E003403F583E493F58BD28E209208750A02A0
:10011E001204F680F520934B75F007E509A4250A25
:10012E00F582E435F0F583E58224F6F582E5833435
:10013E0002F583E493F58D75F007E509A4250AF51C
:10014E0082E435F0F583E582240BF582E5833403F2
:10015E00F583E493F58BD28E209308750A0312046F
:10016E00F680F520944B75F007E509A4250AF58273
:10017E00E435F0F583E58224F6F582E5833402F565
:10018E0083E493F58D75F007E509A4250AF582E45D
:10019E0035F0F583E582240BF582E5833403F58390
:1001AE00E493F58BD28E209408750A041204F6801F
:1001BE00F520954B75F007E509A4250AF582E4357F
:1001CE00F0F583E58224F6F582E5833402F583E4C7
:1001DE0093F58D75F007E509A4250AF582E435F04F
:1001EE00F583E582240BF582E5833403F583E493EE
:1001FE00F58BD28E209508750A051204F680F5202F
:10020E00964B75F007E509A4250AF582E435F0F55D
:10021E0083E58224F6F582E5833402F583E493F5D3
:10022E008D75F007E509A4250AF582E435F0F5830E
:10023E00E582240BF582E5833403F583E493F58B95
:0E024E00D28E209608750A061204F680F5225C
:1005230012050E20000512040780F812001E80F346
:030003000204AB49
:1004AB00C0E0C0D075D000C004C005C006C0072096
:1004BB00B2107F057E0012048D30B2FDB200B2A6E1
:0F04CB00B2A7D007D006D005D004D0D0D0E032F1
:03000B00020448A4
:10044800C0E0C083C082C0D075D000C007C28CE5B0
:100458000C90032093FF9002F593F58CEF90030A1C
:1004680093F58AB2A2D28CD007D0D0D082D083D0D4
:02047800E03270
:03001B0002036D70
:10036D00C0E0C0F0C083C082C0D0C28E75F007E57A
:10037D0009A4250AF582E435F0F583E58224F6F526
:10038D0082E5833402F583E493F58D75F007E50975
:10039D00A4250AF582E435F0F583E582240BF58278
:1003AD00E5833403F583E493F58BB2A2D28ED0D0DE
:0903BD00D082D083D0F0D0E032F0
:0300000002025C9D
:0C025C00787FE4F6D8FD7581200202A333
:10026800020523E493A3F8E493A34003F68001F284
:1002780008DFF48029E493A3F85407240CC8C33397
:10028800C4540F4420C8834004F456800146F6DF66
:10029800E4800B0102040810204080900533E47EBE
:1002A800019360BCA3FF543F30E509541FFEE4935B
:1002B800A360010ECF54C025E060A840B8E493A322
:1002C800FAE493A3F8E493A3C8C582C8CAC583CA4D
:1002D800F0A3C8C582C8CAC583CADFE9DEE780BE05
:0105380000C2
:00000001FF
