:03000000020A34BD
:0C0A3400787FE4F6D8FD758158020A7B3B
:100B2A000257000002550000091457656C636F6D87
:100B3A006521000F1D596F7572204E6F2E69732043
:100B4A00303021000B4A3030206973206C6566749E
:100B5A00000D2C54686520717565756520697300F0
:100B6A00113966756C6C2C706C65617365207761E0
:100B7A006974000410000000010408000000010468
:050B8A000C000000005A
:100C9B00C2AF759850E4F587758920758DFD758BFE
:040CAB00FDD28E22C6
:100C2B00E4FDFCD3ED9FEE6480F8EC6480985015E6
:100C3B00E4FBFA0BBB00010AEB640B4A70F50DBD2C
:050C4B0000010C80DE39
:010C50002281
:100C5100E4FDFCD3ED9FEE6480F8EC6480985015C0
:100C6100E4FBFA0BBB00010AEB64794A70F50DBD98
:050C710000010C80DE13
:010C7600225B
:080C0300D2A28F807F287E0041
:100C0B00E4FDFCC3ED9FEC9E5015E4FBFA0BBB001F
:0F0C1B00010AEB64644A70F50DBD00010C80E422
:010C2A0022A7
:0C0CD000C2A1C2A0120C03C2A2D2A12239
:070CAF00744A2558F8E6FF26
:0C0CB600C2A1D2A0120C03C2A2D2A12243
:0E0C7700120991EB2430F54B7F02E4FDFCFEE8
:100C8500EF64014E7005ED24808003ED24C0FFE480
:060C95003CFE120CD0220F
:0E0CC2007F017E00120CD07F027E00020CD05B
:100B90007F387E00120CD07F0C7E00120CD07F06B6
:100BA0007E00120CD07F01120C81E4F555F55674CD
:100BB000142556F8E6FF120CB60556E556700205E8
:0B0BC00055D39407E555940040E52252
:100800003090030209517F0A7E00120C2B309003B6
:10081000020951E47F63FDFCAB13AA12A911A810D1
:10082000D3120A234052C2AF7F887E13120C51129A
:100830000CC27D027C007F017E00120C85E4F5571E
:10084000F558742C120CB10558E55870020557D3B1
:10085000940BE557940040EA120C7FE4F557F558E5
:100860007439120CB10558E55870020557D3940F2E
:10087000E557940040EA8068120CC2E47B0AFAF95A
:10088000F8AF13AE12AD11AC10120991EF2430F590
:1008900028E47B0AFAF9F8AF13AE12AD11AC1012CE
:1008A0000991EB2430F529E5132401F513E4351201
:1008B000F512E43511F511E43510F510E4FDFC7F77
:1008C00001FE120C85E4F557F558741D120CB105A4
:1008D00058E55870020557D3940DE557940040EA47
:1008E000C3E513950FF50BE512950EF50AE5119585
:1008F0000DF509E510950CF508E50B24FFFFE50A59
:1009000034FFFEE50934FFFDE50834FFFCE47B0A13
:10091000FAF9F8120991EF2430F54AE50B24FFFFAC
:10092000E50A34FFFEE50934FFFDE50834FFFCE489
:100930007B0AFAF9F8120C77E4F557F558120CAF68
:100940000558E55870020557D39409E557940040BF
:05095000EC3090FD22D7
:100AC0002091667F0A7E00120C2B20915CC3E513F7
:100AD000950FF50BE512950EF50AE511950DF50943
:100AE000E510950CF508120CC2E47B0AFAF9F8AF90
:100AF0000BAE0AAD09AC08120991EF2430F54AE4B7
:100B00007B0AFAF9F8AF0BAE0AAD09AC08120C7704
:100B1000E4F557F558120CAF0558E5587002055723
:0A0B2000D39409E557940040EC223D
:100BCB00120CC2120B90120C9BE4F50FF50EF50DE7
:100BDB00F50C2090031208008513993099FDC299EA
:100BEB0030980DC298AF99E48F0FF50EF50DF50CFB
:080BFB002091DF120AC080DA2C
:100A4000020BCBE493A3F8E493A34003F68001F2F6
:100A500008DFF48029E493A3F85407240CC8C333B7
:100A6000C4540F4420C8834004F456800146F6DF86
:100A7000E4800B0102040810204080900B2AE47EE1
:100A8000019360BCA3FF543F30E509541FFEE4937B
:100A9000A360010ECF54C025E060A840B8E493A342
:100AA000FAE493A3F8E493A3C8C582C8CAC583CA6D
:100AB000F0A3C8C582C8CAC583CADFE9DEE780BE25
:010B8F000065
:1009550075F008758200EF2FFFEE33FECD33CDCC59
:1009650033CCC58233C5829BED9AEC99E5829840DC
:100975000CF582EE9BFEED9AFDEC99FC0FD5F0D6B9
:10098500E4CEFBE4CDFAE4CCF9A88222B800C1B9E3
:100995000059BA002DEC8BF084CFCECDFCE5F0CB21
:1009A500F97818EF2FFFEE33FEED33FDEC33FCEB5A
:1009B50033FB10D703994004EB99FB0FD8E5E4F915
:1009C500FA227818EF2FFFEE33FEED33FDEC33FC02
:1009D500C933C910D7059BE99A4007EC9BFCE99AF6
:1009E500F90FD8E0E4C9FAE4CCFB2275F010EF2F3B
:1009F500FFEE33FEED33FDCC33CCC833C810D7073B
:100A05009BEC9AE899400AED9BFDEC9AFCE899F875
:0E0A15000FD5F0DAE4CDFBE4CCFAE4C8F92208
:100A2300EB9FF5F0EA9E42F0E99D42F0E89C45F029
:010A330022A0
:00000001FF
