:03000000020237C2
:0C023700787FE4F6D8FD75815802027E45
:10032D000257000002550000091457656C636F6D8C
:10033D006521000F1D596F7572204E6F2E69732048
:10034D00303021000B4A3030206973206C656674A3
:10035D00000D2C54686520717565756520697300F5
:10036D00113966756C6C2C706C65617365207761E5
:10037D00697400041000000001040800000001046D
:05038D000C000000005F
:10049E00C2AF759850E4F587758920758DFD758B03
:0404AE00FDD28E22CB
:10042E00E4FDFCD3ED9FEE6480F8EC6480985015EB
:10043E00E4FBFA0BBB00010AEB640B4A70F50DBD31
:05044E0000010C80DE3E
:010453002286
:10045400E4FDFCD3ED9FEE6480F8EC6480985015C5
:10046400E4FBFA0BBB00010AEB64794A70F50DBD9D
:0504740000010C80DE18
:010479002260
:08040600D2A28F807F287E0046
:10040E00E4FDFCC3ED9FEC9E5015E4FBFA0BBB0024
:0F041E00010AEB64644A70F50DBD00010C80E427
:01042D0022AC
:0C04D300C2A1C2A0120406C2A2D2A12243
:0704B200744A2558F8E6FF2B
:0C04B900C2A1D2A0120406C2A2D2A1224D
:0E047A00120194EB2430F54B7F02E4FDFCFEF2
:10048800EF64014E7005ED24808003ED24C0FFE485
:060498003CFE1204D32219
:0E04C5007F017E001204D37F027E000204D36A
:100393007F387E001204D37F0C7E001204D37F06C5
:1003A3007E001204D37F01120484E4F555F55674DC
:1003B300142556F8E6FF1204B90556E556700205F2
:0B03C30055D39407E555940040E52257
:100003003090030201547F0A7E0012042E309003C5
:10001300020154E47F63FDFCAB13AA12A911A810DB
:10002300D31202264052C2AF7F887E1312045412A9
:1000330004C57D027C007F017E00120488E4F5572D
:10004300F558742C1204B40558E55870020557D3BB
:10005300940BE557940040EA120482E4F557F558EF
:1000630074391204B40558E55870020557D3940F38
:10007300E557940040EA80681204C5E47B0AFAF964
:10008300F8AF13AE12AD11AC10120194EF2430F59A
:1000930028E47B0AFAF9F8AF13AE12AD11AC1012D3
:1000A3000194EB2430F529E5132401F513E435120B
:1000B300F512E43511F511E43510F510E4FDFC7F7C
:1000C30001FE120488E4F557F558741D1204B405B3
:1000D30058E55870020557D3940DE557940040EA4C
:1000E300C3E513950FF50BE512950EF50AE511958A
:1000F3000DF509E510950CF508E50B24FFFFE50A5E
:1001030034FFFEE50934FFFDE50834FFFCE47B0A18
:10011300FAF9F8120194EF2430F54AE50B24FFFFB6
:10012300E50A34FFFEE50934FFFDE50834FFFCE48E
:100133007B0AFAF9F812047AE4F557F5581204B277
:100143000558E55870020557D39409E557940040C4
:05015300EC3090FD22DC
:1002C3002091667F0A7E0012042E20915CC3E51301
:1002D300950FF50BE512950EF50AE511950DF50948
:1002E300E510950CF5081204C5E47B0AFAF9F8AF9A
:1002F3000BAE0AAD09AC08120194EF2430F54AE4C1
:100303007B0AFAF9F8AF0BAE0AAD09AC0812047A0E
:10031300E4F557F5581204B20558E558700205572D
:0A032300D39409E557940040EC2242
:1003CE001204C512039312049EE4F50FF50EF50DFB
:1003DE00F50C2090031200038513993099FDC299F4
:1003EE0030980DC298AF99E48F0FF50EF50DF50C00
:0803FE002091DF1202C380DA36
:100243000203CEE493A3F8E493A34003F68001F200
:1002530008DFF48029E493A3F85407240CC8C333BC
:10026300C4540F4420C8834004F456800146F6DF8B
:10027300E4800B010204081020408090032DE47EEB
:10028300019360BCA3FF543F30E509541FFEE49380
:10029300A360010ECF54C025E060A840B8E493A347
:1002A300FAE493A3F8E493A3C8C582C8CAC583CA72
:1002B300F0A3C8C582C8CAC583CADFE9DEE780BE2A
:01039200006A
:1001580075F008758200EF2FFFEE33FECD33CDCC5E
:1001680033CCC58233C5829BED9AEC99E5829840E1
:100178000CF582EE9BFEED9AFDEC99FC0FD5F0D6BE
:10018800E4CEFBE4CDFAE4CCF9A88222B800C1B9E8
:100198000059BA002DEC8BF084CFCECDFCE5F0CB26
:1001A800F97818EF2FFFEE33FEED33FDEC33FCEB5F
:1001B80033FB10D703994004EB99FB0FD8E5E4F91A
:1001C800FA227818EF2FFFEE33FEED33FDEC33FC07
:1001D800C933C910D7059BE99A4007EC9BFCE99AFB
:1001E800F90FD8E0E4C9FAE4CCFB2275F010EF2F40
:1001F800FFEE33FEED33FDCC33CCC833C810D70740
:100208009BEC9AE899400AED9BFDEC9AFCE899F87A
:0E0218000FD5F0DAE4CDFBE4CCFAE4C8F9220D
:10022600EB9FF5F0EA9E42F0E99D42F0E89C45F02E
:0102360022A5
:00000001FF
