:03000000020110EA
:0C011000787FE4F6D8FD75815B02015792
:10019C00021E0000025A000002580000100E506CA3
:1001AC00656173652054616B65204B3321000F2012
:1001BC00596F7572204E6F2E697320303021000BF1
:1001CC004D3030206973206C656674000D2F5468B7
:1001DC006520717565756520697300113C66756CD9
:1001EC006C2C706C65617365207761697400020C0E
:0A01FC00000102080001020A0000E1
:1003C300C2AF759850E4F587758920758DFD758BDF
:0803D300FDD28ED2B0D2B1229E
:10035300E4FDFCD3ED9FEE6480F8EC6480985015C7
:10036300E4FBFA0BBB00010AEB640B4A70F50DBD0D
:0503730000010C80DE1A
:010378002262
:10037900E4FDFCD3ED9FEE6480F8EC6480985015A1
:10038900E4FBFA0BBB00010AEB64794A70F50DBD79
:0503990000010C80DEF4
:01039E00223C
:08032B00D2A78F807F287E001D
:10033300E4FDFCC3ED9FEC9E5015E4FBFA0BBB0000
:0F034300010AEB64644A70F50DBD00010C80E403
:010352002288
:0C03FC00C2A5C2A612032BC2A7D2A522E4
:0703DB00744D255BF8E6FFFD
:0C03E200C2A5D2A612032BC2A7D2A522EE
:0E039F00120207ED2430F54E7F02E4FDFCFE55
:1003AD00EF64014E7005ED24808003ED24C0FFE461
:0603BD003CFE1203FC22CD
:0E03EE007F017E001203FC7F027E000203FCF2
:1002F0007F387E001203FC7F0C7E001203FC7F0619
:100300007E001203FC7F011203A9E4F558F559742D
:100310000E2559F8E6FF1203E20559E5597002056A
:0B03200058D3940EE558940040E522ED
:1000030030B20302010C7F0A7E0012035330B203A5
:1000130002010CD3E50D9463E50C94004052C2AF8A
:100023007F887E131203791203EE7D027C007F0129
:100033007E001203ADE4F55AF55B742F1203DD0560
:100043005BE55B7002055AD3940BE55A940040EAD2
:100053001203A7E4F55AF55B743C1203DD055BE577
:100063005B7002055AD3940FE55A940040EA804F1F
:100073001203EEAE0CAF0D7C007D0A120207EF24D3
:1000830030F52BAE0CAF0D7C007D0A120207ED2478
:1000930030F52C050DE50D7002050CE4FDFC7F0128
:1000A300FE1203ADE4F55AF55B74201203DD055B24
:1000B300E55B7002055AD3940DE55A940040EAC3F8
:1000C300E50D950BF509E50C950AF508E50924FFFF
:1000D300FBE50834FFFA7C007D0AAF03FE1202073A
:1000E300EF2430F54D7C007D0AAF03AE0212039F6F
:1000F300E4F55AF55B1203DB055BE55B7002055A19
:0D010300D39409E55A940040EC30B2FD227F
:10025C0020B34E7F0A7E0012035320B344C3E50D36
:10026C00950BF509E50C950AF5081203EEAE08AFEF
:10027C00097C007D0A120207EF2430F54DAE08AF61
:10028C00097C007D0A12039FE4F55AF55B1203DB2F
:10029C00055BE55B7002055AD39409E55A9400405E
:0202AC00EC2242
:1002AE001203EE1202F01203C3E4F50AF50B20B2AC
:1002BE0003120003E50D651F7004E50C651E600E4C
:1002CE00850C1E850D1F850D993099FDC2993098AC
:1002DE0009C298AF99750A008F0B20B3D112025C38
:0202EE0080CCC2
:10011C000202AEE493A3F8E493A34003F68001F249
:10012C0008DFF48029E493A3F85407240CC8C333E4
:10013C00C4540F4420C8834004F456800146F6DFB3
:10014C00E4800B010204081020408090019CE47EA6
:10015C00019360BCA3FF543F30E509541FFEE493A8
:10016C00A360010ECF54C025E060A840B8E493A36F
:10017C00FAE493A3F8E493A3C8C582C8CAC583CA9A
:10018C00F0A3C8C582C8CAC583CADFE9DEE780BE52
:0102060000F7
:10020700BC000BBE0029EF8DF084FFADF022E4CCDB
:10021700F875F008EF2FFFEE33FEEC33FCEE9DECA4
:10022700984005FCEE9DFE0FD5F0E9E4CEFD22EDEA
:10023700F8F5F0EE8420D21CFEADF075F008EF2F34
:10024700FFED33FD4007985006D5F0F222C398FD25
:050257000FD5F0EA22C2
:00000001FF
