:030000000202C237
:0C02C200787FE4F6D8FD75817302030913
:10022700012F0001730001370001080001090001D7
:100237000A00010B00017200017100012D00012E5F
:1002470000012C00017000016F00073048656C6CDD
:100257006F210011384E6F2E303020636F6D65208F
:10026700746F204E6F001149302E77696E646F7777
:100277002C506C6561736521000B5A30302069730F
:10028700206C656674000A65416C6C2069732030C8
:100297003000080C5731202D203030000814573219
:1002A700202D20303000081C5733202D20303000FF
:0A02B70008245734202D20303000B9
:1005ED00C2AF759850E4F587758920758DFD758BB3
:0805FD00FDD28ED2B0D2B12272
:040537007F147E00AF
:10053B00E4FDFCD3ED9FEE6480F8EC6480985015DD
:10054B00E4FBFA0BBB00010AEB640B4A70F50DBD23
:05055B0000010C80DE30
:010560002278
:10058900E4FDFCD3ED9FEE6480F8EC64809850158F
:10059900E4FBFA0BBB00010AEB64794A70F50DBD67
:0505A90000010C80DEE2
:0105AE00222A
:1005AF008F828E83E4F571D3E57194C87480948043
:1005BF00500DAF82AE8312053BB2A5057180E8D214
:0205CF00A52263
:08056100D2A78F807F287E00E5
:10056900E4FDFCC3ED9FEC9E5015E4FBFA0BBB00C8
:0F057900010AEB64644A70F50DBD00010C80E4CB
:010588002250
:0C062400C2A5C2A6120561C2A7D2A52281
:050605002572F8E6FF7C
:0C060A00C2A5D2A6120561C2A7D2A5228B
:0605D1007F01E4FDFCFEC9
:1005D700EF64014E7005ED24808003ED24C0FFE435
:0605E7003CFE1206242276
:0E0616007F017E001206247F027E0002062471
:1004CE007F387E001206247F0C7E001206247F06E3
:1004DE007E001206241205D1E4F571D3E571940560
:1004EE0074809480500E74302571F8E6FF12060A5F
:0504FE00057180E722FA
:10034E00E52ED3952D50030203D57F0B7E001205AB
:10035E00AF7FC87E0012053B7F0F1205AF12061647
:10036E000537E52D2401FBE433FA7C007D0AAF034B
:10037E00FE120440EF2430F53B7C007D0AAF03AE45
:10038E0002120440ED2430F53CE5702430F549129C
:10039E0005D1E4F572D3E572940F74809480500900
:1003AE007438120605057280EC7F021205D3E4F54F
:1003BE0072D3E572940F74809480500974491206BA
:0803CE0005057280EC052D22EB
:10049500120616C3E52E952DF52C75F00A84243029
:1004A500F55AE52C75F00A84E5F02430F55B120564
:1004B500D1E4F572D3E5729409748094805009747F
:0904C5005A120605057280EC22B2
:10050300120616E53775F00A842430F56CE5377565
:10051300F00A84E5F02430F56D1205D1E4F572D3C9
:10052300E572940874809480500974651206050579
:040533007280EC22C4
:10014D00120616E50875F00A842430F511E50875D8
:10015D00F00A84E5F02430F512E50975F00A8424DF
:10016D0030F519E50975F00A84E5F02430F51AE546
:10017D000A75F00A842430F521E50A75F00A84E544
:10018D00F02430F522E50B75F00A842430F529E5CD
:10019D000B75F00A84E5F02430F52A1205D1E4F54B
:1001AD0072D3E5729406748094805009740C120613
:1001BD0005057280EC7D087C007F017E001205D75D
:1001CD00E4F572D3E572940674809480500974142A
:1001DD00120605057280ECE4FDFC7F02FE1205D7C8
:1001ED00E4F572D3E5729406748094805009741C02
:1001FD00120605057280EC7D087C007F027E0012E0
:10020D0005D7E4F572D3E572940674809480500995
:0A021D007424120605057280EC221D
:10000300E4F97590FFC29720930E7F14FE12053B0F
:100013003093FD120537790120920B120537309288
:10002300FD120537790220910B1205373091FD122D
:100033000537790320900B1205373090FD120537F1
:1000430079047590FFC29620930B1205373093FD08
:10005300120537790520920B1205373092FD1205F0
:1000630037790620910B1205373091FD1205377948
:100073000720900B1205373090FD1205377908756C
:1000830090FFC29520930B1205373093FD1205376D
:10009300790920920B1205373092FD120537790A40
:1000A30020910B1205373091FD120537790B209003
:1000B3000B1205373090FD120537790C7590FFC28E
:1000C3009420930B1205373093FD120537790D20D9
:1000D300920B1205373092FD120537790E20910BE2
:1000E3001205373091FD120537790F20900B120559
:1000F300373090FD1205377910E914B407005049E1
:1001030090011175F003A4C58325F0C58373020123
:100113002602012D02013402013B02014302014682
:100123000201497570010508801375700205098085
:100133000C757003050A8005757004050B02034EE8
:0901430002014D020503120495AE
:01014C002290
:1003D6001205ED1206161204CEE4F50BF50AF50920
:1003E600F508F537F52CF52EF52DF573F52F1200DA
:1003F60003E52D652F600B852D2F852D993099FDF1
:10040600C2993098E9C29885996FAF6F7E00D3EF95
:1004160094637480948050D6E56FC3957340CFEF94
:100426009573FFEE9400FED3EF9414EE64809480EF
:0A04360050BC856F2E856F7380B4F3
:1002CE000203D6E493A3F8E493A34003F68001F26D
:1002DE0008DFF48029E493A3F85407240CC8C33331
:1002EE00C4540F4420C8834004F456800146F6DF00
:1002FE00E4800B0102040810204080900227E47E67
:10030E00019360BCA3FF543F30E509541FFEE493F4
:10031E00A360010ECF54C025E060A840B8E493A3BB
:10032E00FAE493A3F8E493A3C8C582C8CAC583CAE6
:10033E00F0A3C8C582C8CAC583CADFE9DEE780BE9E
:0102C100003C
:10044000BC000BBE0029EF8DF084FFADF022E4CCA0
:10045000F875F008EF2FFFEE33FEEC33FCEE9DEC69
:10046000984005FCEE9DFE0FD5F0E9E4CEFD22EDAF
:10047000F8F5F0EE8420D21CFEADF075F008EF2FF9
:10048000FFED33FD4007985006D5F0F222C398FDEA
:050490000FD5F0EA2287
:00000001FF
